:100000000C9465000C945E060C9485060C948D008F
:100010000C948D000C948D000C9417060C947C0BA2
:100020000C948D000C948D000C948D000C948D001C
:100030000C948D000C948D000C948D000C948D000C
:100040000C94AC060C948D000C943D080C946F0835
:100050000C948D000C948D000C948D000C948D00EC
:100060000C948D000C948D00080316033A033E0394
:10007000BF0399042D0500000008000201000003E1
:100080000407000000000000000001020408102026
:10009000408001020408102001020408102004041A
:1000A0000404040404040202020202020303030320
:1000B000030300000000250028002B0000000000C2
:1000C000240027002A0002009F0811241FBECFEF42
:1000D000D8E0DEBFCDBF11E0A0E0B1E0ECEAFEE188
:1000E00002C005900D92A23AB107D9F722E0A2EA28
:1000F000B1E001C01D92AC37B207E1F710E0CAECE5
:10010000D0E004C02297FE010E94D10EC83CD10766
:10011000C9F70E94190C0C94540F0C940000089518
:1001200060E082E00E94CE0760E0809152010E9470
:10013000CE0760E0809151010E94CE0760E080917F
:1001400050010E94CE0761E080914E010E94CE07CF
:1001500061E0809153010E94CE0761E080914F01E0
:100160000E94CE0720E030E0A90168E873E18091A9
:1001700053010E94380961E080914F010E940708F5
:1001800064EF71E080E090E00E94250780915301C8
:100190000E94670B60E080914F010C9407081F9349
:1001A000CF93DF9361E080914E010E940708C091D8
:1001B0004C01D0914D0161E270E080E090E00E943E
:1001C000D80BFB01EE0FFF1FEA5FFE4F808191818C
:1001D0008C0F9D1F9093050180930401C0914C01E9
:1001E000D0914D0111E080910401909105018C178F
:1001F0009D070CF440C020E030E0A901BE018091D1
:1002000053010E9438098091040190910501C8179B
:10021000D9077CF18091A3019091A401019690935C
:10022000A4018093A3012091A20130E082179307DB
:1002300004F11092A4011092A3011092A501109351
:100240004A016AE571E08AEC91E00E94200910936E
:100250004B018091AA019091AB01A091AC01B091AA
:10026000AD018093A6019093A701A093A801B0933C
:10027000A9012196B8CF809153010E94670B6CE2CF
:1002800071E080E090E00E94D80B0E94250760E0BA
:1002900080914E01DF91CF911F910C9407081F931D
:1002A000CF93DF9361E080914E010E940708C0E088
:1002B000D0E011E020E030E0A90160ED77E080912E
:1002C00053010E94380964EF71E080E090E00E94E1
:1002D000250720E030E0A90168EB7BE08091530125
:1002E0000E94380964EF71E080E090E00E942507E9
:1002F000C230D105C1F4809153010E94670B109266
:10030000A50110934B018091AA019091AB01A0919E
:10031000AC01B091AD018093A6019093A701A09389
:10032000A801B093A9012196C330D10519F660E068
:1003300080914E01DF91CF911F910C9407080F938C
:100340001F930E94F6066093AA017093AB018093FD
:10035000AC019093AD010091A6011091A7012091ED
:10036000A8013091A901DC01CB01801B910BA20BEC
:10037000B30B80369A4EA105B10508F476C062E64B
:1003800071E08AEC91E00E9426098091AA01909187
:10039000AB01A091AC01B091AD018093A601909307
:1003A000A701A093A801B093A90120E030E0A90122
:1003B00068EE73E0809153010E94380961E08091FA
:1003C0004F010E94070868EE73E080E090E00E9411
:1003D0002507809153010E94670B60E080914F01D7
:1003E0000E94070864E170E080E090E00E94250729
:1003F00040E050E06FE870E080E00E942C066AE088
:1004000070E080E090E00E94250720E030E040E0CE
:1004100050E06AE070E080EC91E00E94D40580E05A
:100420000E944C0664E670E080E090E00E942507A0
:1004300020E030E0A90160EA7FE0809153010E9452
:10044000380961E080914F010E94070868EE73E06F
:1004500080E090E00E942507809153010E94670B85
:1004600060E080914F010E940708809150010E9436
:100470008807BC01882777FD8095982F0E94770D0B
:100480002AE038E240EA5BE30E942B0E9B01AC01BC
:100490000E940D0D6093B2017093B3018093B4017B
:1004A0009093B50120E030E040EC5FE30E94710DD5
:1004B00018160CF443C020E030E0A90164EF71E0AD
:1004C000809153010E94380961E080914F010E94A0
:1004D000070860ED77E080E090E00E94250760E08B
:1004E00080914F010E940708809153010E94670B81
:1004F0006CE271E080E090E00E94250740E050E06F
:100500006FE870E080E00E942C0662E370E080E01B
:1005100090E00E94250720E030E040E050E06AE0F3
:1005200070E080EC91E00E94D40580E00E944C06CF
:1005300064E670E080E090E00E942507809152011F
:100540000E948807BC01882777FD8095982F0E941C
:10055000770D2AE038E240EA5BE30E942B0E6093BD
:10056000AE017093AF018093B0019093B1012FE67B
:1005700032E143E85AE30E94270E87FD3DC0809197
:100580004B018130C9F510924B018091AA019091E5
:10059000AB01A091AC01B091AD018093A601909305
:1005A000A701A093A801B093A90166E771E08AECC6
:1005B00091E00E94260927E030E040E050E061E051
:1005C00070E080E090E00E94FC0B6093BE0180919F
:1005D000BF0168130DC027E030E040E050E061E06B
:1005E00070E080E090E00E94FC0B6093BE0104C0CC
:1005F0006093A5016093BF018091A50190E08730D1
:10060000910508F0CEC2FC01EC5CFF4F0C94CF0EBC
:10061000809153010E94670B68EC70E080E090E0ED
:100620000E94250781E080934B01BBC280914A0163
:100630008130E1F410924A012FE030E040E050E0D8
:1006400062E070E080E090E00E94FC0B6093A20109
:1006500028E833E140E050E06CEB72E080E090E0AD
:100660000E94FC0B70934D0160934C011F910F9100
:100670000C94CF001F910F910C944F0120ED37E0A7
:1006800040E050E068EE73E080E090E00E94FC0BF8
:100690007093BD016093BC0128E833E140E050E075
:1006A00060EA7FE080E090E00E94FC0B7093BB0169
:1006B0006093BA0124EC39E040E050E06CED75E065
:1006C00080E090E00E94FC0B7093B9016093B80148
:1006D0002EE531E040E050E06AEF70E080E090E02D
:1006E0000E94FC0B7093B7016093B60161E08091AA
:1006F0004E010E9407086091BC017091BD0120E08D
:1007000030E0A901809153010E9438096091B6013F
:100710007091B701882777FD8095982F0E94250753
:100720006091BA017091BB0120E030E0A901809195
:1007300053010E9438096091B6017091B701882772
:1007400077FD8095982F0E9425076091B8017091E0
:10075000B90120E030E0A901809153010E943809DD
:100760006091B6017091B701882777FD8095982F29
:100770000E942507809153010E94670BF2C161E03E
:1007800080914E010E94070820ED37E040E050E0E4
:1007900068EE73E080E090E00E94FC0B7093BD0176
:1007A0006093BC0128E833E140E050E060EA7FE07C
:1007B00080E090E00E94FC0B7093BB016093BA0153
:1007C00024EC39E040E050E06CED75E080E090E032
:1007D0000E94FC0B7093B9016093B8012EE531E0E3
:1007E00040E050E06AEF70E080E090E00E94FC0B97
:1007F0007093B7016093B6016091BC017091BD0127
:1008000020E030E0A901809153010E94380966E997
:1008100070E080E090E00E94250720E030E0A90130
:1008200068ED74E0809153010E9438096EEB70E02E
:1008300080E090E00E94250720E030E0A9016CE014
:100840007CE0809153010E9438096AEF70E080E0FB
:1008500090E00E9425076091BA017091BB0120E0F1
:1008600030E0A901809153010E94380962E370E0F1
:1008700080E090E00E94250720E030E0A90163E7D6
:1008800073E1809153010E94380962E370E080E0D7
:1008900090E00E9425076091B8017091B90120E0B5
:1008A00030E0A901809153010E9438096CE271E0A7
:1008B00080E090E00E94250720E030E0A90161E798
:1008C00075E0809153010E94380960E570E080E096
:1008D00090E00E94250720E030E0A90161EF7DE073
:1008E000809153010E94380964E670E080E090E056
:1008F0000E9425076091B6017091B70120E030E0B9
:10090000A901809153010E9438096EE170E080E0F6
:1009100090E00E94250720E030E0A90164EF71E03B
:10092000809153010E9438096CE370E080E090E010
:1009300016C161E080914E010E94070824EF31E06A
:1009400040E050E064EA71E0809153010E94380970
:1009500065EF71E080E090E00E94250724EF31E030
:1009600040E050E064EA71E0809153010E94380950
:1009700065EF71E080E090E00E94250724EF31E010
:1009800040E050E064EA71E0809153010E94380930
:1009900065EF71E080E090E00E94250727E731E0F5
:1009A00040E050E06EEA70E0809153010E94380907
:1009B00068E771E080E090E00E9425072DE730E0D5
:1009C00040E050E065E071E0809153010E943809F9
:1009D0006EE770E080E090E00E94250724EF31E0B0
:1009E00040E050E064EA71E0809153010E943809D0
:1009F00065EF71E080E090E00E94250727E731E095
:100A000040E050E06EEA70E0809153010E943809A6
:100A100068E771E080E090E00E9425072DE730E074
:100A200040E050E065E071E0809153010E94380998
:100A30006EE770E080E090E00E94250728EE33E04A
:100A400040E050E064EA71E0809153010E9438096F
:100A500069EE73E080E090E082C061E080914E0139
:100A60000E94070820ED37E040E050E068EE73E0B8
:100A700080E090E00E94FC0B7093BD016093BC018C
:100A800028E833E140E050E060EA7FE080E090E079
:100A90000E94FC0B7093BB016093BA0124EC39E017
:100AA00040E050E06CED75E080E090E00E94FC0BCF
:100AB0007093B9016093B8012EE531E040E050E059
:100AC0006AEF70E080E090E00E94FC0B7093B70149
:100AD0006093B6016091BC017091BD0120E030E0EF
:100AE000A901809153010E94380964EF71E080E010
:100AF00090E00E942507809153010E94670B68ECEB
:100B000070E080E090E00E9425076091B80170914C
:100B1000B90120E030E0A901809153010E94380919
:100B20006CE271E080E090E00E9425078091530123
:100B30000E94670B68EC70E080E090E00E9425075F
:100B40006091BA017091BB0120E030E0A901809171
:100B500053010E94380964EF71E080E090E00E9448
:100B600025071092A50181E080934B018091AA0195
:100B70009091AB01A091AC01B091AD018093A60121
:100B80009093A701A093A801B093A90160E0809180
:100B90004E010E940708809153011F910F910C9400
:100BA000670B1F910F9108954115510529F480910C
:100BB0007A008F7780937A006A307105B1F063FF15
:100BC00002C088E201C088E06770682B88E190E08D
:100BD0000FB6F894A895809360000FBE60936000F4
:100BE0008091600080648093600083B7817F84601F
:100BF00083BF232B51F4F89483B7816083BF85B7FB
:100C0000806685BF8F7D85BF04C0F89483B78160FF
:100C100083BF7894889583B78E7F83BF7894452B64
:100C200029F480917A00806880937A0008951F9259
:100C30000F920FB60F9211248F9388E10FB6F8949C
:100C400080936000109260000FBE8F910F900FBED6
:100C50000F901F90189508958230E8F4E82FF0E087
:100C6000EE0FFF1FEC5AFE4F71836083813041F01D
:100C7000809169008C7F842B80936900E89A0895A5
:100C800080916900440F551F440F551F837F842BAB
:100C900080936900E99A0895823078F4813011F0E8
:100CA000E89801C0E998E82FF0E0EE0FFF1FEC5A3A
:100CB000FE4F8BE296E09183808308951F920F92FE
:100CC0000FB60F9211242F933F934F935F936F931F
:100CD0007F938F939F93AF93BF93EF93FF93E09195
:100CE0005401F09155010995FF91EF91BF91AF919A
:100CF0009F918F917F916F915F914F913F912F9134
:100D00000F900FBE0F901F9018951F920F920FB665
:100D10000F9211242F933F934F935F936F937F9381
:100D20008F939F93AF93BF93EF93FF93E0915601FF
:100D3000F09157010995FF91EF91BF91AF919F916C
:100D40008F917F916F915F914F913F912F910F9074
:100D50000FBE0F901F9018951F920F920FB60F9213
:100D600011242F933F938F939F93AF93BF938091C1
:100D7000C2019091C301A091C401B091C50130910D
:100D8000C10123E0230F2D3720F40196A11DB11DD1
:100D900005C026E8230F0296A11DB11D2093C101B5
:100DA0008093C2019093C301A093C401B093C50185
:100DB0008091C6019091C701A091C801B091C9016D
:100DC0000196A11DB11D8093C6019093C701A09308
:100DD000C801B093C901BF91AF919F918F913F918D
:100DE0002F910F900FBE0F901F9018952FB7F8946A
:100DF0006091C2017091C3018091C4019091C501BD
:100E00002FBF08953FB7F8948091C6019091C70114
:100E1000A091C801B091C90126B5A89B05C02F3F7C
:100E200019F00196A11DB11D3FBF6627782F892FAC
:100E30009A2F620F711D811D911D42E0660F771F71
:100E4000881F991F4A95D1F70895CF92DF92EF92AC
:100E5000FF92CF93DF936B017C010E940207EB01AD
:100E6000C114D104E104F10489F00E94280C0E940D
:100E700002076C1B7D0B683E734090F381E0C81A3B
:100E8000D108E108F108C851DC4FEACFDF91CF91DA
:100E9000FF90EF90DF90CF900895789484B58260B2
:100EA00084BD84B5816084BD85B5826085BD85B50E
:100EB000816085BDEEE6F0E0808181608083E1E8BD
:100EC000F0E01082808182608083808181608083F5
:100ED000E0E8F0E0808181608083E1EBF0E08081F8
:100EE00084608083E0EBF0E0808181608083EAE7CA
:100EF000F0E0808184608083808182608083808153
:100F0000816080838081806880831092C100089511
:100F10008E3008F08E5087702091580190E4299F00
:100F200090011124822B80937C0080917A00806450
:100F300080937A0080917A0086FDFCCF80917800C2
:100F40002091790090E0922B0895833081F028F46D
:100F5000813099F08230A1F008958730A9F088306F
:100F6000B9F08430D1F4809180008F7D03C08091EE
:100F700080008F7780938000089584B58F7702C0BA
:100F800084B58F7D84BD08958091B0008F7703C0B4
:100F90008091B0008F7D8093B0000895CF93DF9350
:100FA00090E0FC01E657FF4F2491FC01E256FF4F11
:100FB0008491882349F190E0880F991FFC01E45443
:100FC000FF4FA591B4918E549F4FFC01C591D491D0
:100FD0009FB7611108C0F8948C91209582238C935F
:100FE000888182230AC0623051F4F8948C91322FA8
:100FF000309583238C938881822B888304C0F89456
:101000008C91822B8C939FBFDF91CF9108950F938A
:101010001F93CF93DF931F92CDB7DEB7282F30E019
:10102000F901EA58FF4F8491F901E657FF4F1491F7
:10103000F901E256FF4F04910023C9F0882321F003
:1010400069830E94A5076981E02FF0E0EE0FFF1F82
:10105000EE54FF4FA591B4919FB7F8948C91611114
:1010600003C01095812301C0812B8C939FBF0F90EB
:10107000DF91CF911F910F9108951F920F920FB69C
:101080000F9211242F938F939F93EF93FF93E091EF
:10109000DA01F091DB018081E091E001F091E10162
:1010A00082FD12C090818091E3018F5F8F73209148
:1010B000E401821751F0E091E301F0E0E653FE4FC6
:1010C000958F8093E30101C08081FF91EF919F9103
:1010D0008F912F910F900FBE0F901F9018951F9218
:1010E0000F920FB60F9211242F933F934F935F935C
:1010F0006F937F938F939F93AF93BF93EF93FF93E0
:101100008AEC91E00E94640CFF91EF91BF91AF9146
:101110009F918F917F916F915F914F913F912F910F
:101120000F900FBE0F901F9018958AEC91E00E94CF
:10113000290C21E0892B09F420E0822F08951092D8
:10114000CD011092CC0188EE93E0A0E0B0E0809356
:10115000CE019093CF01A093D001B093D10186E945
:1011600091E09093CB018093CA0185EC90E090933D
:10117000D7018093D60184EC90E09093D9018093BD
:10118000D80180EC90E09093DB018093DA0181EC50
:1011900090E09093DD018093DC0182EC90E09093ED
:1011A000DF018093DE0186EC90E09093E101809373
:1011B000E0011092E3011092E4011092E501109217
:1011C000E6010895CF92DF92EF92FF920F931F9363
:1011D000CF93DF937C016A01EB0100E010E00C1576
:1011E0001D0571F06991D701ED91FC910190F0819D
:1011F000E02DC7010995892B19F00F5F1F4FEFCF25
:10120000C801DF91CF911F910F91FF90EF90DF9078
:10121000CF9008956115710581F0DB010D900020DC
:10122000E9F7AD0141505109461B570BDC01ED9127
:10123000FC910280F381E02D099480E090E0089514
:101240000C940A0961E871E00C940A090F931F934A
:10125000CF93DF93EC010E940A098C01CE010E941A
:101260002209800F911FDF91CF911F910F91089557
:101270003F924F925F926F927F928F929F92AF9226
:10128000BF92CF92DF92EF92FF920F931F93CF9373
:10129000DF9300D000D0CDB7DEB78B0129013A0132
:1012A00090915901981721F09F3F09F0DAC104C0CD
:1012B000E6ECF0E0349081C080935901E6ECF0E078
:1012C000E491EF3F09F4CDC1E13031F1E23009F4AE
:1012D0004BC0E11171C014BC15BC94B5926094BDB3
:1012E00095B5916095BD282F30E0F901E256FF4F8A
:1012F000E491F0E0EE0FFF1FEE54FF4F4591549143
:101300005093770240937602F901E657FF4F2491FC
:1013100020937502312C53C01092800010928100EE
:1013200090918100986090938100909181009160EC
:1013300090938100282F30E0F901E256FF4FE491AD
:10134000F0E0EE0FFF1FEE54FF4F45915491509384
:10135000700240936F02F901E657FF4F24912093EA
:101360006E02332433942BC01092B0001092B1005F
:101370009091B00092609093B0009091B100916014
:101380009093B100282F30E0F901E256FF4FE4912D
:10139000F0E0EE0FFF1FEE54FF4F45915491509334
:1013A000690240936802F901E657FF4F24912093A8
:1013B000670252E0352E03C03E2E37FC52C161E079
:1013C0000E94CE074801A12CB12C832D8D7F09F0FE
:1013D000C7C060E072E18AE790E0A50194010E9435
:1013E000B00E29833A834B835C8369017A0181E0E3
:1013F000C81AD108E108F1089FEFC916D104E10429
:10140000F10409F008F49AC060E472E48FE090E01F
:10141000A50194010E94B00E69017A01E1E0CE1AA3
:10142000D108E108F108F2E03F1219C08FEFC816A9
:10143000D104E104F10409F008F48AC060E970ED18
:1014400083E090E0A50194010E94B00E69017A0149
:1014500091E0C91AD108E108F10883E001C082E0F7
:10146000EFEFCE16D104E104F10409F008F467C0EF
:1014700068E478EE81E090E0A50194010E94B00E4E
:1014800069017A01F1E0CF1AD108E108F1083320AF
:10149000E1F082E038121BC09FEFC916D104E104CD
:1014A000F10409F008F4DBC064E274EF80E090E03E
:1014B000A50194010E94B00E69017A01E1E0CE1A03
:1014C000D108E108F10885E003C083E001C084E0B1
:1014D000FFEFCF16D104E104F10489F180F162E15C
:1014E0007AE780E090E0A50194010E94B00E6901C6
:1014F0007A0181E0C81AD108E108F108311002C070
:1015000084E001C086E09FEFC916D104E104F10434
:10151000B1F0A8F0C980DA80EB80FC809AE0F59405
:10152000E794D794C7949A95D1F7E1E0CE1AD10801
:10153000E108F108332031F087E00BC081E033206F
:1015400011F007C085E095B5987F982B95BD38C000
:1015500082E09091B100987F982B9093B10030C0B9
:1015600060E072E18AE790E0A50194010E94B00E6C
:1015700069017A01F1E0CF1AD108E108F108C1143C
:10158000D10481E0E806F10488F068E478EE81E0B7
:1015900090E0A50194010E94B00E69017A0191E0EA
:1015A000C91AD108E108F10893E001C091E0E1E037
:1015B0003E1206C080918100887F892B8093810034
:1015C000411451046104710471F0D801AA0FBB1FCA
:1015D000A30192010E94D50E28EE33E040E050E0D6
:1015E0000E948E0E03C02FEF3FEFA901F1E03F16DE
:1015F000A1F082E0381619F1311033C0C7BC209336
:1016000078023093790240937A0250937B02809162
:101610006E00826080936E0024C0D0928900C092D8
:1016200088002093710230937202409373025093AA
:10163000740280916F00826080936F0012C0C0922C
:10164000B30020936A0230936B0240936C02509374
:101650006D028091700082608093700002C084E00F
:1016600078CF0F900F900F900F90DF91CF911F9137
:101670000F91FF90EF90DF90CF90BF90AF909F9031
:101680008F907F906F905F904F903F900895813042
:1016900039F018F0823051F0089510926E000895DC
:1016A00080916F008D7F80936F000895809170000E
:1016B0008D7F8093700081E08093B0008091B100B5
:1016C000887F84608093B1001092B3000895CF9317
:1016D000C82F809159018C1307C0E6ECF0E084918B
:1016E0009FEF9093590101C08FEF0E94470B60E07C
:1016F0008C2FCF910C9407081F920F920FB60F9268
:1017000011242F933F934F935F936F937F938F9306
:101710009F93AF93BF93EF93FF9380916A02909151
:101720006B02A0916C02B0916D02892B8A2B8B2BDE
:1017300051F190916702E0916802F0916902808115
:101740008927808380916A0290916B02A0916C023C
:10175000B0916D02181619061A061B06C4F4809182
:101760006A0290916B02A0916C02B0916D02019798
:10177000A109B10980936A0290936B02A0936C0255
:10178000B0936D0204C0809159010E94670BFF91D4
:10179000EF91BF91AF919F918F917F916F915F91E9
:1017A0004F913F912F910F900FBE0F901F90189562
:1017B000CF93DF9300D000D0CDB7DEB79B01AC0153
:1017C000611571058105910569F069833A834B8341
:1017D0005C830E943E0F29813A814B815C810E948B
:1017E000B00E03C060E070E0CB010F900F900F903F
:1017F0000F90DF91CF910895CF92DF92EF92FF92F9
:101800006B017C01621773078407950764F4CA01B2
:10181000B9016C197D098E099F090E94D80B6C0DC6
:101820007D1D8E1D9F1DFF90EF90DF90CF9008953E
:1018300008950E944D070E94180C0E949000C6E572
:10184000DCE00E949F012097E1F30E94560CF9CF43
:101850000895FC01818D228D90E0805C9F4F821B5A
:1018600091098F7399270895FC01918D828D9817A6
:1018700031F0828DE80FF11D858D90E008958FEF96
:101880009FEF0895FC01918D828D981761F0828DF4
:10189000DF01A80FB11D5D968C91928D9F5F9F73A4
:1018A000928F90E008958FEF9FEF089585E998E07B
:1018B000892B49F080E090E0892B29F00E9495085F
:1018C00081110C9400000895FC01848DDF01A80FA4
:1018D000B11DA35ABF4F2C91848D90E001968F7358
:1018E0009927848FA689B7892C93A089B1898C9177
:1018F00080648C93938D848D981306C00288F3893D
:10190000E02D80818F7D80830895CF93DF93EC015C
:10191000888D8823C9F0EA89FB89808185FD05C00F
:10192000A889B9898C9186FD0FC00FB607FCF5CF49
:10193000808185FFF2CFA889B9898C9185FFEDCF91
:10194000CE010E94640CE7CFDF91CF910895CF9232
:10195000DF92FF920F931F93CF93DF931F92CDB728
:10196000DEB76C0181E0D60158968C9358975B9650
:101970009C915B975C968C915C97981307C05096EE
:10198000ED91FC915197808185FD2EC0F601038D6C
:1019900010E00F5F1F4F0F731127F02EF601848D9B
:1019A000F81211C00FB607FCF9CFD6015096ED9191
:1019B000FC915197808185FFF1CFC60169830E9418
:1019C000640C6981EBCF838DE80FF11DE35AFF4F63
:1019D0006083D6015B960C935B975296ED91FC91D8
:1019E0005397808180620CC0D6015696ED91FC9190
:1019F000579760835096ED91FC9151978081806458
:101A0000808381E090E00F90DF91CF911F910F9143
:101A1000FF90DF90CF9008955058BB27AA270ED093
:101A2000DCC0CDD030F0D2D020F031F49F3F11F4A3
:101A30001EF4C2C00EF4E095E7FBB8C0E92FDED07B
:101A400080F3BA17620773078407950718F071F4DB
:101A50009EF5F6C00EF4E0950B2EBA2FA02D0B01CB
:101A6000B90190010C01CA01A0011124FF27591BE3
:101A700099F0593F50F4503E68F11A16F040A22FE9
:101A8000232F342F4427585FF3CF4695379527955A
:101A9000A795F0405395C9F77EF41F16BA0B620B59
:101AA000730B840BBAF09150A1F0FF0FBB1F661FA0
:101AB000771F881FC2F70EC0BA0F621F731F841FE3
:101AC00048F4879577956795B795F7959E3F08F009
:101AD000B3CF9395880F08F09927EE0F97958795C8
:101AE000089540D008F481E00895E89409C097FB78
:101AF0003EF490958095709561957F4F8F4F9F4FE5
:101B00009923A9F0F92F96E9BB279395F695879528
:101B100077956795B795F111F8CFFAF4BB0F11F4EB
:101B200060FF1BC06F5F7F4F8F4F9F4F16C0882392
:101B300011F096E911C0772321F09EE8872F762FC8
:101B400005C0662371F096E8862F70E060E02AF009
:101B50009A95660F771F881FDAF7880F96958795F5
:101B600097F90895990F0008550FAA0BE0E8FEEFCA
:101B700016161706E807F907C0F012161306E40751
:101B8000F50798F0621B730B840B950B39F40A264A
:101B900061F0232B242B252B21F408950A2609F428
:101BA000A140A6958FEF811D811D089597F99F672C
:101BB00080E870E060E008959FEF80EC08950024D5
:101BC0000A941616170618060906089500240A94A2
:101BD00012161306140605060895092E0394000C28
:101BE00011F4882352F0BB0F40F4BF2B11F460FFB7
:101BF00004C06F5F7F4F8F4F9F4F089557FD9058E0
:101C0000440F551F59F05F3F71F04795880F97FBC0
:101C1000991F61F09F3F79F087950895121613067A
:101C20001406551FF2CF4695F1DF08C016161706A9
:101C30001806991FF1CF86957105610508940895DE
:101C4000E894BB2766277727CB0197F908958ADFA9
:101C500008F48FEF08950BD0C0CFB1DF28F0B6DFC6
:101C600018F0952309F0A2CFA7CF1124EACFC6DF41
:101C7000A0F3959FD1F3950F50E0551F629FF0019F
:101C8000729FBB27F00DB11D639FAA27F00DB11DF8
:101C9000AA1F649F6627B00DA11D661F829F222781
:101CA000B00DA11D621F739FB00DA11D621F839F08
:101CB000A00D611D221F749F3327A00D611D231FDE
:101CC000849F600D211D822F762F6A2F11249F572C
:101CD00050408AF0E1F088234AF0EE0FFF1FBB1F4F
:101CE000661F771F881F91505040A9F79E3F5105EE
:101CF00070F05CCFA6CF5F3FECF3983EDCF38695A7
:101D000077956795B795F795E7959F5FC1F7FE2B98
:101D1000880F911D9695879597F90895A1E21A2E3F
:101D2000AA1BBB1BFD010DC0AA1FBB1FEE1FFF1F7F
:101D3000A217B307E407F50720F0A21BB30BE40BCF
:101D4000F50B661F771F881F991F1A9469F7609516
:101D50007095809590959B01AC01BD01CF010895D0
:101D6000052E97FB1EF400940E94C70E57FD07D066
:101D70000E948E0E07FC03D04EF40C94C70E5095B3
:101D80004095309521953F4F4F4F5F4F0895909567
:101D90008095709561957F4F8F4F9F4F0895EE0FFF
:101DA000FF1F0590F491E02D09940E94E00EA59F7D
:101DB000900DB49F900DA49F800D911D1124089546
:101DC000A29FB001B39FC001A39F700D811D11247C
:101DD000911DB29F700D811D1124911D08958F9248
:101DE0009F92AF92BF92CF92DF92EF92FF92CF93EA
:101DF000DF93EC01688179818A819B81611571058E
:101E00008105910521F464E279ED8BE597E02DE100
:101E100033EF41E050E00E94B00E49015A019B01AE
:101E2000AC01A7EAB1E40E94D50E6B017C01ACEED7
:101E3000B4EFA50194010E944F0FC60ED71EE81EF5
:101E4000F91EF7FE06C081E0C81AD108E10880E853
:101E5000F80AC882D982EA82FB82C701B6019F775D
:101E6000DF91CF91FF90EF90DF90CF90BF90AF9038
:101E70009F908F9008950E94EF0E089580E091E06A
:101E80000E94EF0E0895609300017093010180930A
:101E90000201909303010895B7FF0C94D50E0E94A0
:0C1EA000D50E821B930B0895F894FFCF21
:101EAC00010000006400DC05E8030000DC052003F1
:101EBC0096007107D60600003C0032004600140064
:101ECC0002081901A6039608D209F2054A07330045
:101EDC00330033001604D8023801D508DB06B306EC
:101EEC00D5042F0698054800000001015C120E1263
:101EFC000F1013092B062B0601FF6C696D69743AE0
:101F0C00200054696D656F7574207475726E696EFE
:101F1C0067206F66660054696D6520526573657441
:101F2C00000D0A006E616E00696E66006F766600C9
:101F3C002E0000000000A70CE208290C420C340C07
:021F4C00850C02
:107E0000112484B714BE81FFF0D085E080938100F7
:107E100082E08093C00088E18093C10086E0809377
:107E2000C20080E18093C4008EE0C9D0259A86E02C
:107E300020E33CEF91E0309385002093840096BBD3
:107E4000B09BFECF1D9AA8958150A9F7CC24DD24C4
:107E500088248394B5E0AB2EA1E19A2EF3E0BF2EE7
:107E6000A2D0813461F49FD0082FAFD0023811F036
:107E7000013811F484E001C083E08DD089C08234E0
:107E800011F484E103C0853419F485E0A6D080C0E4
:107E9000853579F488D0E82EFF2485D0082F10E0AE
:107EA000102F00270E291F29000F111F8ED06801E7
:107EB0006FC0863521F484E090D080E0DECF843638
:107EC00009F040C070D06FD0082F6DD080E0C81688
:107ED00080E7D80618F4F601B7BEE895C0E0D1E017
:107EE00062D089930C17E1F7F0E0CF16F0E7DF06D8
:107EF00018F0F601B7BEE89568D007B600FCFDCFD4
:107F0000A601A0E0B1E02C9130E011968C91119780
:107F100090E0982F8827822B932B1296FA010C0160
:107F200087BEE89511244E5F5F4FF1E0A038BF0790
:107F300051F7F601A7BEE89507B600FCFDCF97BE46
:107F4000E89526C08437B1F42ED02DD0F82E2BD052
:107F50003CD0F601EF2C8F010F5F1F4F84911BD097
:107F6000EA94F801C1F70894C11CD11CFA94CF0C13
:107F7000D11C0EC0853739F428D08EE10CD085E9AC
:107F80000AD08FE07ACF813511F488E018D01DD067
:107F900080E101D065CF982F8091C00085FFFCCF94
:107FA0009093C60008958091C00087FFFCCF809118
:107FB000C00084FD01C0A8958091C6000895E0E648
:107FC000F0E098E1908380830895EDDF803219F02E
:107FD00088E0F5DFFFCF84E1DECF1F93182FE3DFCA
:107FE0001150E9F7F2DF1F91089580E0E8DFEE27F6
:047FF000FF270994CA
:027FFE00040479
:0400000300007E007B
:00000001FF
